:03000000020006F5
:03005F0002000399
:0300030002006296
:2000620090E60B7403F090E68D7401F090E6A1E0FF20E1F890E68DE090E780E0FFBF0102C4
:20008200800ABF02028013BF30DC803090E781E0F5B290E782E0F5B380CC90E781E0F5806A
:2000A20090E7C0E580F090E7C1E590F090E68F7402F090E6A2E0FF30E1AC80F690E7C074D5
:2000C20031F090E7C104F090E7C204F090E7C304F0750871750901750A8090E7C075F0006E
:1400E2001200F690E68F7411F090E6A2E0FF20E1F80200682E
:12017100706F72745F6C6F6F705F6261636B5F66770072
:2000F60085820B85830C85F00DAA08AB09AC0AA80BA90CAF0D8A828B838CF0120151FEA367
:20011600AA82AB83888289838FF0EE120136A3A882A983EE70DF850B82850C83850DF022A3
:06003500E478FFF6D8FD9F
:200013007900E94400601B7A009001837801759200E493F2A308B800020592D9F4DAF2752B
:0200330092FF3A
:1B01360020F71130F6138883A88220F509F6A8837583002280FEF280F5F022C8
:20003B007800E84400600A7901759200E4F309D8FC7800E84400600C7900900001E4F0A3D1
:04005B00D8FCD9FAFA
:0D00060075810D12016DE58260030200039B
:1C01510020F71430F6148883A88220F507E6A88375830022E280F7E49322E022BD
:04016D007582002275
:00000001FF
