:03000000020006F5
:03005F0002000399
:0300030002018B6C
:2000620090E6007412F000000090E60174C3F000000090E60B7403F000000075B00875B5B5
:200082000C75800175B20390E6027498F000000090E60374FEF000000090E611E4F090E612
:2000A2001074A0F090E61274A2F090E61374A0F090E61474E2F090E61574E0F000000090E0
:2000C200E6047480F000000090E6047482F000000090E6047484F000000090E6047486F02A
:2000E20000000090E6047488F000000090E604E4F000000090E618E4F000000090E64974B5
:2001020082F000000090E6497482F000000090E619E4F000000090E6497484F0000000902C
:20012200E6497484F000000090E6187410F000000090E6197410F000000090E61A740CF0A1
:2001420000000090E61B740CF000000090E68D74FFF00000007ED07F07001EBEFF011FEE79
:200162004F70F675B00C7ED07F07001EBEFF011FEE4F70F62290E780E0FF74035FF5809052
:19018200E68D74FFF00000002212006290E6A1E0FF20E1F812017780F30C
:06003500E478FFF6D8FD9F
:200013007900E94400601B7A0090019F7801759200E493F2A308B800020592D9F4DAF2750F
:0200330092FF3A
:20003B007800E84400600A7901759200E4F309D8FC7800E84400600C7900900001E4F0A3D1
:04005B00D8FCD9FAFA
:0D00060075810712019BE582600302000373
:04019B007582002247
:00000001FF
