:03000000020006F5
:03005F0002000399
:030003000201CA2D
:2000620090E6007412F000000090E60174C3F000000090E60B7403F000000075B00875B5B5
:200082000C75800175B20300000075800000000075800100000090E6027498F00000009043
:2000A200E60374FEF000000090E61174A0F090E610F090E61274A2F090E61374A0F090E661
:2000C2001474E2F090E61574E0F000000090E6047480F000000090E6047482F000000090A7
:2000E200E6047484F000000090E6047486F000000090E6047488F000000090E604E4F00014
:20010200000090E618E4F000000090E6497482F000000090E6497482F000000090E619E4BE
:20012200F000000090E6497484F000000090E6497484F000000090E6187410F000000090ED
:20014200E6197410F000000090E61A740CF000000090E61B740CF000000090E68D74FFF0C3
:200162000000007ED07F07001EBEFF011FEE4F70F675B00C7ED07F07001EBEFF011FEE4FCE
:2001820070F62290E68DE0FE7F007C007D00C3EC9EED9F502974FE5580FBEC2480F8ED343F
:2001A200E7F97A00888289838AF012022EF87401584BF5800000000CBC00D30D80D090E61E
:2001C2008D74FFF0000000227C007D7D7E007F00C007C006C005C004120062D004D005D095
:2001E20006D00775800000000090E6A1E0FB20E113C007C006C005C004120185D004D005CE
:20020200D006D007EC24FFF8ED34FFF9EE34FFFAEF34FFFB880489058A068B07E8494A4BD5
:0C02220070C7FC7DFAFEFF63800280BD07
:06003500E478FFF6D8FD9F
:200013007900E94400601B7A0090024E7801759200E493F2A308B800020592D9F4DAF2755F
:0200330092FF3A
:20003B007800E84400600A7901759200E4F309D8FC7800E84400600C7900900001E4F0A3D1
:04005B00D8FCD9FAFA
:0D00060075810712024AE5826003020003C3
:1C022E0020F71430F6148883A88220F507E6A88375830022E280F7E49322E022DF
:04024A007582002297
:00000001FF
